:1000000003C200001EC200000C94C4111AC20000FA
:1000100018C200000C94B51114C2000012C20000F6
:1000200010C200000EC200000CC200000AC2000094
:1000300008C2000006C200000C94771102C2000042
:1000400000C20000FEC10000FCC10000FAC10000B7
:10005000F8C10000F6C10000F4C10000F2C10000C8
:10006000F0C10000EEC10000ECC10000EAC10000D8
:10007000323032333034303430313336000105041D
:1000800014101115FF3FB2333526023679257A3424
:10009000F526F52E643289335E336332DC30F72E79
:1000A0007A31CE2E952F9E2C812CEF2B0A2BEB290B
:1000B0004A2AC2287D28C72627265D257424742352
:1000C0006622F521CB20A01FF81ECA1D0F1DE71BBD
:1000D000241B091AF9183B183A17441659154314EA
:1000E0003E13491263116310750F740E870D8D0C4A
:1000F000A70B9E0AAC09B708C207CE06DD05DD04D2
:10010000E503F402FF01FF01FF01FF01FF01FF0111
:10011000FF01FF01FF01FF01FF01FF01FF01FF01DF
:10012000FF01FF01FF01FF01FF01FF01FF01FF01CF
:10013000FF01FF01FF01FF01FF01FF01FF01FF01BF
:10014000FF01FF01FF01FF01FF01FF01FF01FF01AF
:10015000FF01FF01FF01FF01FF01FF01FF01FF019F
:10016000FF01FF01FF01FF01FF01FF01FF01FF018F
:10017000FF01FF01FF01FF01FF01FF01FF01FF017F
:10018000FF01FF01FF01FF01FF01FF01FF01FF016F
:10019000FF01FF01FF01FF01FF01FF01FF01FF015F
:1001A000FF01FF01FF01FF01FF01FF01FF01FF014F
:1001B000000000000000000000000000000000003F
:1001C000000000000000000000000000000000002F
:1001D000000000000000000000000000000000001F
:1001E000000000000000000000000000000000000F
:1001F00000000000000000000000000000000000FF
:1002000000000000000000000000000000000000EE
:1002100000000000000000000000000000000000DE
:1002200000000000000000000000000000000000CE
:1002300000000000000000000000000000000000BE
:1002400000000000000000000000000000000000AE
:10025000000000000000000000000000000000009E
:10026000000000000000000000000000000000008E
:10027000000000000000000000000000000000007E
:10028000000000000000000000000000000000006E
:10029000000000000000000000000000000000005E
:1002A000000000000000000000000000000000004E
:1002B000000000000000000000000000000000003E
:1002C000000000000000000005000E001B002D00D3
:1002D000440060008100A600D000FF000200020080
:1002E00002000300030004000400050006000700EC
:1002F000080009000A000B000D000E00100011009C
:1003000013001500170019001C001E002100230017
:10031000260029002C002F003200360039003C0056
:100320004000430047004A004E005100540058006E
:100330005B005E00610063006500670069006A00A1
:100340006B006B006B006A006900660063005F0071
:100350005A0054004D0044003A002F0022002400AF
:10036000260028002A002C002F003100340036001F
:1003700039003C003F004200450049004C0050005D
:10038000530057005B006000640068006D0072005D
:1003900077007C00820087008D0093009900A00008
:1003A000A600AD00B400BB00C300CB00D300DB004F
:1003B000E400EC00F500FF00080112011D01270117
:1003C00032013D014901540161016D017A0187014A
:1003D0009501A301B101C001CF01DF01EF01FF01D0
:1003E000120226023A024F0264027A029102A80225
:1003F000C102DA02F3020E032903450361037F03FE
:100400009D03BD03DD03FE0311241FBECFEFD4E027
:10041000DEBFCDBF11E0A0E0B1E0ECE2FAE202C045
:1004200005900D92A235B107D9F722E0A2E5B1E01F
:1004300001C01D92AC30B207E1F70E94D3110C94B9
:100440001415DECDF89498ED9FBD83BF7894089580
:10045000482F9B01E7EDF1E080E090E050815523CB
:1004600031F00196339680319105C1F70AC063E0FF
:1004700070E00E947B14FC01E952FE4F40833283FE
:10048000218308950F931F93CF93DF93D091D701CA
:10049000DD2351F10091D8011091D901C091B4012F
:1004A000C150C7FD0DC0EC2FEE0FFF0BEB54FE4FFC
:1004B0000190F081E02DB8018D2F09958111F0CFC9
:1004C000E7EDF1E08381808384819581928381834C
:1004D000339682E0E430F807A9F7109204021092F4
:1004E000060210920502D2CFDF91CF911F910F919A
:1004F0000895BC0180910902ABCF109209021092BD
:1005000008021092070281E08093870108950F93FB
:100510001F93CF93C82F08EA17E0CC2349F082E05D
:1005200091DFC8010197F1F780E08CDFC150F5CF72
:10053000CF911F910F910895E0910701F09108016B
:100540003196FB70F460F0930801E093070180910D
:10055000A9018B5A8093A901E4918091A9018E0F82
:1005600008950F931F93CF93DF9300D01F92CDB7C1
:10057000DEB720912601309127014091280129837F
:100580003A834B83FE01319640E050E090E061E019
:1005900070E0B1919A01220F331F8C0102C01595B2
:1005A00007952A95E2F79801237061F02130D1F484
:1005B000A0B39B0101C0220FBA95EAF7322F309504
:1005C0003A2318C0A0B39B0101C0220FBA95EAF7E5
:1005D00020953A2F322330BB32B3322332BB31B3B2
:1005E00023230EC0A0B39B0101C0220FBA95EAF7E6
:1005F0003A2F322B30BB32B3322B32BB31B3232BE9
:1006000021BB4F5F5F4F4330510519F60F900F909C
:100610000F90DF91CF911F910F910895CF93DF93AA
:1006200000D000D000D0CDB7DEB7909182012091EC
:10063000C5013091C601245B394009F492E0843051
:1006400019F46093830121C06623F9F0823019F414
:1006500027E9261B622F26E0E9E2F1E0DE01119690
:1006600001900D922A95E1F7E82FF0E03197EE0F17
:10067000FF1F21E030E02C0F3D1FE20FF31F019020
:10068000F081E02DE90FF11D608326960FB6F894F6
:10069000DEBF0FBECDBFDF91CF910895BF92CF9245
:1006A000DF92EF92FF920F931F93CF93DF93EC01B2
:1006B00040918201E0911F01EE2311F082E001C020
:1006C000842F90E0DC01A75EBE4F2C9120931D018A
:1006D000DC01AA5EBE4F8C9180931C01F0E0ED5EC0
:1006E000FE4F3181622F70E0442349F0313039F4FC
:1006F0009B01280F311DC9019595879538C0C617F4
:10070000D707A4F1682F70E06C177D0784F14111C1
:1007100002C08C2F2CC0821B032F10E00150110946
:10072000E82EF12CC701B8010E94C5146093800126
:100730006695E62FF0E0822FC12CD12CB12CB31698
:10074000B1F0C601B8010E94B114822F860FCE0C01
:10075000DF1CAE01481B510957FF03C0519541955D
:100760005109E417F5071CF4B394E9CF822FDF9108
:10077000CF911F910F91FF90EF90DF90CF90BF909E
:10078000089581E00895611160932401089566231E
:1007900089F0813061F48091C8019091C701891B73
:1007A000681B6093C70182E08093250103C0635EEC
:1007B0006093230180912301873418F086E48093AD
:1007C0002301089560937B010895E82FF0E0E45F32
:1007D000FE4F608308950F931F93CF93DF93809113
:1007E0008201809388018091190180938901809111
:1007F000160180938A018091130180938B0180916F
:100800001A0180938C018091170180938D01809152
:10081000140180938E0180911B0180938F01809140
:10082000180180939001809115018093910180912E
:100830001F018093920180918301809393018091A5
:1008400081018093940180911E0180939501809194
:100850008501809396018091840180939701809116
:100860007701809398018091220180939901809172
:10087000780180939A018091210180939B0180915E
:100880000C0180939C0180910A0180939D018091CD
:100890000B0180939E018091100180939F018091B4
:1008A00023018093A0018091C7018093A1018091D1
:1008B00024018093A201809112018093A301809171
:1008C00011018093A40180917B018093A501809107
:1008D0000D018093A60180910E018093A701809164
:1008E0000F018093A80182E012DEF89408E811E07D
:1008F000C1E8D0E0F80161918F01CE010E9402159C
:100900002196C23AD105B1F765EA80E890E00E94ED
:1009100002157894DF91CF911F910F91089588234C
:1009200021F0813031F4829805C0829892988A989B
:100930000895829A929A8A9A0895EF92FF921F934D
:10094000CF93DF93182F8091AB01811109C0112340
:1009500039F080912101181718F4EFDF82E0D7DD1C
:100960001093AB011093AA018091AC0181110BC0CF
:10097000F8DD91E0111101C090E081E0173408F436
:1009800080E0890FCCDF111114C010920B0210927D
:100990000A0218BA10926D0010926C0010926B004F
:1009A00010926A0010926F0010926E0088988998D9
:1009B00031C08FEF810F90E0880F991FFC01E45246
:1009C000FD4F2591349130930B0220930A02FC01D4
:1009D000E055FE4F2591349128BBFC01EC57FF4FA9
:1009E0002591349180916001A901405251098823D9
:1009F00039F060916E0070916F0046175707B8F399
:100A00003093690020936800811104C010926F0038
:100A100010926E00C0910A02D0910B02E090680023
:100A2000F09069008091AB01815090912201911169
:100A30000BC090E06FEF70E00E947B1466E970E0FD
:100A40000E94B114262F1AC09F3F61F490E06FEF0F
:100A500070E00E947B1466E970E00E94B114262FBA
:100A600020950CC0892F90E064E670E00E947B1412
:100A700063E670E00E94C5142FEF260FBE0180E0F0
:100A800090E030E040E050E00E948C1461587F4FCD
:100A90008F4F9F4F2FEF30E040E050E00E94D8147E
:100AA000C901C21BD30BE216F30630F42E193F091D
:100AB000C20FD31FC70109C0EC16FD0630F42E1972
:100AC0003F09CE01820F931FE701D0936D00C093C1
:100AD0006C0090936B0080936A00CD2B11F0889A84
:100AE00001C08898892B11F0899A01C089981093C8
:100AF00060018091AB01823010F482E005C08A3041
:100B000010F481E001C080E0DF91CF911F91FF9050
:100B1000EF9098CCCF93C091AB0186E48C0F8739CE
:100B200008F080E00ADF83E0F2DC8C2FCF9105CF64
:100B3000CF93C091AB0180E000DF83E0E8DC8C2F35
:100B4000CF91FBCE0F931F93CF93DF93E82F80912C
:100B5000CA019FEF980F9C3120F480E002DD80E015
:100B600090C0CE2FC295CF70DE2FDF709091AC0178
:100B7000911103C0C33008F0C2E0D730A8F400914F
:100B80005A0110E00F5F1F4FD7DC65E00E94A514EB
:100B90009801290F311DC90166E070E00E94C5145B
:100BA00080935A01ED2F41C0D730A9F400915A012A
:100BB00010E00F5F1F4FC0DC65E00E94A514980194
:100BC000290F311DC90166E070E00E94C5148093B1
:100BD0005A01FC0135C0D830B1F48091AC018823B2
:100BE00011F08FE001C083E0682351F480915A0135
:100BF00090E0019666E070E00E94C51480935A016F
:100C0000E0915A0112C09091AC01992381F08D318D
:100C1000D8F090E0E92FF0E0EE5BFE4F20818217E4
:100C200010F09E5FF7CF3197E081F0E009C0862F8A
:100C3000869563E00E94A514E92FF0E0EE0FFF1FF8
:100C4000E358FF4FE49101C0E0E0C33071F48091BC
:100C5000590190E0019663E170E00E94B114809325
:100C60005901DC01A15DBE4FCC91CC2329F0C130EC
:100C700029F0EE0FC2E002C0C0E0E0E08E2F71DC90
:100C80008C2FDF91CF911F910F9149CE813019F4B4
:100C9000109285010895823019F4609384010895BB
:100CA000833019F4609381010895843011F46093C6
:100CB0001E010895813069F4611101C080E08093C4
:100CC0007801611102C08FE701C081E080932201A9
:100CD0000895823011F4609321010895CF93C0915B
:100CE0001F01C1114AC0883039F410927F0110925F
:100CF0007D0110927C0142C0813B59F480917F01BB
:100D000081508330D0F583E080937F0180937E0112
:100D100034C0853BB1F4CB016EE370E00E94B114A6
:100D2000892B61F580917F018A3F40F58B5F80932D
:100D30007F0180937E0110927D0110927C01EADE9A
:100D40001DC08130D1F480917C0190917D0101968C
:100D500088382EE0920728F490937D0180937C01DF
:100D60000DC010927D0110927C0180917F0188233B
:100D700029F0815080937F0101C0C1E08C2FCF9179
:100D80000895CF93833B09F052C080917801882366
:100D900081F0672B09F065C0809122018E3F19F028
:100DA00081E080932201809122018095809322012D
:100DB00053C0672B29F481E08093580110925701AA
:100DC00080915801882309F44DC0909105018091CC
:100DD0002201191624F48E3F48F48F5F05C0992331
:100DE00029F0823018F0815080932201C091570180
:100DF00090912201C03449F481E48093570181E04D
:100E000089278093220194DE0DC0809156018913B9
:100E100009C0C11102C08CDE02C0CF3F19F0CF5F04
:100E2000C0935701809122018093560115C0833EE3
:100E3000C1F41092580180910501819580930501BC
:100E400080912201823010F481E003C08E3F18F0BF
:100E50008FEF80930501BFDC8091AB016EDD80E0F8
:100E600001C081E0CF910895FF920F931F93CF931C
:100E7000DF938C01EB01F42E8091C5019091C601A6
:100E8000892B31F0E091C501F091C60189E0099507
:100E90001093C6010093C501012B39F0E091C50103
:100EA000F091C601BE018F2D099581E080938701E5
:100EB000DF91CF911F910F91FF900895CF93DF9312
:100EC000E091B401EE2359F0E150E093B401F0E079
:100ED000EE0FFF1FEB54FE4FC081D18102C0C0E076
:100EE000D0E0E091B401EE2341F0F0E0EE0FFF1FFF
:100EF000ED54FE4F8081918102C080E090E04AE095
:100F000060E070E0B1DFCE01DF91CF9108958830CD
:100F100029F41092760110925B0115C08130F9F42A
:100F200090915B01911107C06032710568F1809367
:100F30005B01E3DA29C0913081F46B3B710528F045
:100F400082E080935B0180E01EC061157105E1F0D5
:100F50006270862F880F8E5E16C0B0DF15C0813894
:100F600011F0813E89F491E090935B01813E21F480
:100F700080917601865F03C0809176018F5F8093B8
:100F80007601BBDA8BE4D9DC80E008959C01909176
:100F9000B401983088F4E92FF0E0EE0FFF1FEB5416
:100FA000FE4F318320839F5F9093B40148E0C901D5
:100FB0005BDF8091B40108958FEF08950F931F9325
:100FC000CF93DF93EC018B0179DFB801CE01DF9184
:100FD000CF911F910F91DACF813C29F460E070E04E
:100FE0008FE498E006C0823C31F460E070E085E177
:100FF00098E0E4DF16C0813B49F4CB016EE370E07A
:101000000E94B114892B69F485DD0BC0813E59F42F
:10101000CB016EE370E00E94B1146F5F609310012A
:10102000DADB80E0089581E00895CF93C0911F013D
:10103000C11117C0813C29F460E070E08FE498E0B2
:1010400006C0823C31F460E070E085E398E0B6DFF2
:1010500009C0873B31F460E070E080EC99E096DFF6
:1010600001C0C1E08C2FCF910895813C29F460E04C
:1010700070E08FE498E006C0823C31F460E070E0FC
:101080008CEE97E09BDF07C0873B39F460E070E0AF
:1010900084EC99E07BDF80E0089581E008950F9370
:1010A0001F93CF938B01883079F480E046DC60E0B9
:1010B0008091120147DD10927F01012B19F481E02C
:1010C0008093AC01C0E004C1813049F469317105FD
:1010D000C8F38093AC018091120134DDF3CF8330EB
:1010E00029F520918501222381F08091840190E0EF
:1010F00062EC71E00E947B140817190730F020930E
:1011000020018091770180932201602F809112014C
:1011100019DD80917B018823A9F290E062EC71E0F7
:101120000E947B148017910768F64DC0813B99F4AB
:1011300081E090E0B3DA01DC809181018111C2CFBE
:1011400080918201811104C00831110508F4BACFE1
:1011500061E070E028C0813ED9F3813821F48091AC
:10116000200190E013C0813C21F46091AB0170E05C
:101170001AC0823B79F480911E0190911F01911158
:1011800080918301811104C086E990E087DA05C06F
:1011900086E903C0823E19F480E0CFDB93CF823C26
:1011A00031F466E970E080E49FE008DF8BCF83399B
:1011B00099F3833C29F460E070E085E198E0F5CF95
:1011C000843C31F4A7DC60E070E080ED99E0EDCF85
:1011D0008D3B41F4F89488ED8FBD88E880BF78940A
:1011E000A895FFCF8F3C29F460E070E081EC93E09C
:1011F000DCCFC0911F018A3B71F4672B61F4CC23D3
:1012000029F088DC10921F01E6DA5CCF60E070E024
:1012100084EB99E05AC0C1115AC08A3C29F47ADCA7
:1012200081E080931F0147C0833B29F460E070E0B8
:1012300085EF9CE00FC0853C31F46CDC60E070E031
:1012400083E89EE007C0863C39F464DC60E070E02F
:101250008CEC9EE0B3DE3CC0873C91F4909112018F
:10126000892F82958F708F5F83708295807F9F70AA
:10127000892B8093120160E065DCADDA4BDC28C07D
:10128000873BB9F4C8018F739927892B69F4909132
:101290001201892F8F708F5F292F207F6BE00E94B2
:1012A000A514922B90931201602F809112014ADCB9
:1012B0000FC0873E11F48FDA0BC0893B41F4012B3C
:1012C00031F460E070E08CEB99E060DE01C0C1E0D9
:1012D0008C2FCF911F910F910895883061F4109257
:1012E0005C0180E02ADB8091AD01811137C081E093
:1012F00080935C0123C0982F907F903BB9F420919C
:101300005C01421780F0CB016DE570E00E94B114E2
:10131000029739F42F5F20935C014217F8F088E3BD
:1013200003C082E101C080E008DB18C0903E61F498
:1013300080915C01882389F0481778F060E070E0C4
:1013400087E897E023DE0AC08A3041F46091760195
:1013500080915C01F90109953EDAB0DD80E00895E5
:101360002EE033E043E0B9CF2EE033E044E0B5CFE8
:1013700026E436E044E0B1CF2AE536E042E0ADCFE6
:1013800023EC33E041E0A9CF27EC33E042E0A5CFE6
:1013900022EE33E041E0A1CF25EE33E043E09DCFE4
:1013A0000F931F93CF93DF93D82F8B01873B19F4B3
:1013B00080E0C3DA5CC080798039B1F420911901F2
:1013C00090911A018D2F8F70823041F480918501A8
:1013D000811108C0822F291728F403C0822F921789
:1013E00008F4892FAADA0BC0803811F480E0A5DA5E
:1013F000D83029F460E080911101A4DB38C0D130ED
:1014000039F40931110508F46FC0D093AC0102C062
:10141000D33029F4602F8091110194DB65C0D33C57
:1014200031F478DB60E070E08FE498E01EC0D43CDB
:1014300071F4C0918501CC2319F06C2F70E013C0BA
:101440006091200170E080E49FE0B8DD50C0D43BA3
:1014500031F46EDB1092090261E070E004C0D53C0B
:1014600031F466E970E080E49FE0A8DD3DC0C09102
:101470001F01C1113BC0DA3B31F460E070E088EC41
:1014800099E084DD34C0D73C91F490911101892F0B
:1014900082958F708F5F83708295807F9F70892B7C
:1014A0008093110160E04EDB96D934DB20C0D73B3E
:1014B000B9F4C8018F739927892B69F490911101B0
:1014C000892F8F708F5F292F207F6BE00E94A514DA
:1014D000922B90931101602F8091110133DB07C093
:1014E000D73E21F478D903C0C0E001C0C1E08C2F01
:1014F000DF91CF911F910F91089586E884B91092E2
:10150000D4011092D50183B1886483B90895F5DFC1
:10151000E1E6F0E0808182608083139A87EE83B9F0
:1015200008951092D60120B191B13091A901229570
:10153000269526952370892F90E0880F991F880F94
:10154000991F820F911D830F8093A9018091CB0178
:10155000882309F409C11092CB018091D4019091A4
:10156000AC01992319F01F981092D401811140C049
:1015700080912501882349F08091D0019091D1017B
:101580009093CD018093CC0104C08091CC019091C7
:10159000CD014096807E61EC72E00E94B114809192
:1015A000240190E00797680F791F769567956093FF
:1015B000CA0180917401882311F0815008C06D31F7
:1015C00040F460E070E084E00E94280285E08093AF
:1015D00074018091AC018111BEC08EE884B981E0B4
:1015E0008093D4011092D50183B1886483B9B3C0CC
:1015F000813009F0B0C080912501811143C08091F4
:10160000CE019091CF01409645E0969587954A95F9
:10161000E1F76091C701AC0156954795062E000C85
:10162000770B9B012E503140240F351F3093C90199
:101630002093C80120916301E22FF0E0EE0FFF1F1D
:10164000EC59FE4F40815181DC01A41BB50BAD016B
:10165000918380832F5F2770209363019D01220F68
:10166000331F220F331F820F931F2091230130E07D
:10167000261B370B225F3E4F220F331F821B930B1B
:1016800023E01CC08091D2019091D3019093CF01AF
:101690008093CE01409635E0969587953A95E1F78F
:1016A000E4E6F1E081939193B1E0E437FB07D1F7F1
:1016B000A6CF009709F00196215029F018161906B7
:1016C000C4F70197F9CF18161906E4F457FD39C08D
:1016D0002091620112160CF1880F991FBC01635012
:1016E000710977FF02C06F5F7F4F7595679516167A
:1016F000170614F061E070E088E1861B80936201B8
:1017000085E026C08C3F2FEF9207DCF457FF19C00D
:101710002091620127FF05C02450281B20936201FD
:1017200019C024EE281B209362012091CA012F3199
:1017300088F06CEF7FEF681B790B7595679586E0F5
:1017400007C08091CA018E3128F060E070E087E028
:101750000E942802D2DE80912501882329F0809101
:1017600025018150809325010895843021F58091D1
:10177000C5019091C6012CE0853F920729F469E1EB
:1017800070E080E49FE015C080549F4071F4909118
:10179000AB01923050F0892F869596959695890FDA
:1017A00080938601CAD880E0089560E070E08FE4FD
:1017B00098E004DCF8CF81E008950F931F93CF9356
:1017C0001092AF0180910702909108029C012F5F57
:1017D0003F4F88279078822B932B90930802809319
:1017E00007029091AD012FB1822F8095881F882725
:1017F000881F8093AD01981729F11092AC01809356
:10180000AD0190910902892F27FD0AC080699F7060
:101810009F3009F08F5F8093090280E090E00CC058
:101820008F7E95FD02C0806801C0806C80930902A4
:1018300080910702909108020E947902109208029A
:101840001092070200910702109108028091AC01EA
:10185000882379F0B80183E00E9428020E944202A6
:101860000F731127012B09F046C0109261014FDE62
:1018700032C0C09109028C2F807F803B19F460E058
:1018800070E001C0B80181E00E942802C4FF13C0CB
:10189000C5FF02C0C8010CC008311105E0F010926C
:1018A000080210920702C062C093090280E090E033
:1018B0000E94790210C0CC2371F0C5FD0AC002312C
:1018C000110548F0C064C093090280E090E00E94D6
:1018D00079020E947D0280916101811106C083B16D
:1018E000886483B981E08093CB01809161018F5F2F
:1018F0008F7180936101CF911F910F910895809115
:10190000D60181110EDE8091AF01811156CF08956D
:10191000EF92FF920F931F93CF93DF93EC0108E0B8
:1019200017E082ECE82EFF24F3942097D9F0809101
:101930008701811119C08091AB01823028F482E0C7
:101940000E942202C70104C080E00E942202C80156
:101950000197F1F780E00E942202D1DF0E9442024B
:101960002197E3CF81E001C080E0DF91CF911F910B
:101970000F91FF90EF900895CF93C82F882391F097
:1019800086E40E949D0486EA90E0C2DF80E00E9427
:101990009D048AEF90E0BCDFC15091F78AE992E0A4
:1019A000CF91B6CF86E40E949D0488E090E0B0DF3E
:1019B00080E00E949D048AEF90E0AADFEFCFCF93F2
:1019C000DF9364E6C2D7282F892F6AE0BED7EC01E7
:1019D000222341F0822FD0DF8C2FCEDF8D2FDF919D
:1019E000CF91CACFC111F8CFF9CFDF92EF92FF921A
:1019F0000F931F93CF93DF93D82F8B01C0910C01CE
:101A000081E080937A01C33009F0DDC0F0907F015E
:101A10008D2F64D9FF2051F080917F01811106C084
:101A200060E070E08FE498E0C9DACDC0D83021F4EE
:101A300081E080930301C9C0D23C19F410927F0168
:101A4000DCC0D13BC1F490910201012B49F49636E0
:101A500010F08FEF03C0923018F481E080930301FF
:101A600080910301890F11F481E035C1873608F4B4
:101A700032C186E630C1D13E31F4809103018195B7
:101A800080930301EFC0D23B61F481E080930301B6
:101A900080910201823008F4EDC0815080930201F0
:101AA000E9C0D13009F0B3C00932110511F4D09367
:101AB0000301D09055018D2D880FD7FC809590E0C3
:101AC00069E070E018D7292FE09054018E2D880F1F
:101AD000E7FC8095D09101016D2F70E090E00BD76D
:101AE000290FF09053018F2D880FF7FC8095C0913E
:101AF00000016C2F70E090E0FED6920F6091020121
:101B000070E0690F711D80917F01813091F48091A7
:101B10007C0190917D0125E0969587952A95E1F7C6
:101B200024E730E0A901481B590BCA01E4D6B901EA
:101B300018D7862F0E949D0400FD06C00E949C02BB
:101B40008170D80ED092550180915201E80EE0923A
:101B500054010E949C0265E2F8D6F90EF0925301FE
:101B60000E949C028F7331F40E949C026DE0EDD6BE
:101B700090935201DD2339F00E949C028F7319F477
:101B8000D150D09301010E949C02811108C00E9493
:101B90009C026EE0DAD69093010110925401C3309A
:101BA00038F00E949C028F7119F4C150C09300015B
:101BB0000E949C028F7709F092C00E949C0287705D
:101BC000809300018CC0D83041F480912201809331
:101BD000090181E08093040180C0D13C61F48091CF
:101BE0000901809322011092750160E070E08FE49A
:101BF00098E0E4D972C0D23C61F4809109018093ED
:101C0000220110927501EC2FF0E031960DC0D13C0D
:101C100031F3D43C71F48091090180932201109238
:101C20007501EC2FF0E03396E370FF27E0930C0191
:101C300034C0D13BA9F4C23008F04FC000FD4DC004
:101C4000EC2FF0E0E65FFE4F808190910401891B4C
:101C5000883020F08F3FE9F48EEF1BC088E019C078
:101C6000D13E31F48091040181958093040115C027
:101C7000D23B89F481E080930401C23070F500FD0D
:101C80002CC0EC2FF0E0E65FFE4F80818F3F29F102
:101C90008F5F808322C0D23E19F40E94EB031DC0E7
:101CA000D33C51F481E0C23030F59091750191112F
:101CB00080E0809375010DC0D53C49F460E070E090
:101CC00083E89EE07BD980E00E949D0406C0D1306D
:101CD00031F081E010C08093020180E00CC0093235
:101CE000110519F481E0809304018091A901080F86
:101CF0000093A901F2CFDF91CF911F910F91FF9037
:101D0000EF90DF9008950F931F93CF93DF93D82F19
:101D10008B01883031F480917A01882311F088E0BA
:101D200064DE8D2F8079803961F481E080937901C0
:101D3000C0917A01C1110CC0809120010E949D04C4
:101D400025C0803839F41092790180E00E949D040A
:101D5000C0E01CC0D130C9F4C0917901CC2359F046
:101D600080917A018823A1F3B80181E0DF91CF91BE
:101D70001F910F913ACE0733114050F3D093AC012D
:101D800060E080E00E94A20501C0C1E08C2FDF91DD
:101D9000CF911F910F910895FF920F931F93CF93AF
:101DA000DF93D82F8B01F09020018079803911F5D5
:101DB000ED2FEF70E43020F010927901C0E02BC0DD
:101DC00091E090937901F0E0E45FFE4F80812FEF86
:101DD000280F263928F48093200110927A0108C038
:101DE00090937A01873998F08759837080930C011A
:101DF000C0E008C0803829F41092790180E00E9488
:101E00009D04C1E080917901882329F001C0C0E0E0
:101E1000B8018D2F78DFF0922001D83021F4B8017D
:101E200088E0BEDA26C0D13039F480917901811181
:101E30001EC0B80181E004C0D33041F4B80183E092
:101E4000DF91CF911F910F91FF90AACAD63C41F428
:101E50000E948A0560E070E08FE498E0AFD807C088
:101E6000D73B39F460E070E08CEC99E08FD880E0EB
:101E700001C08C2FDF91CF911F910F91FF9008959A
:101E8000AF92BF92CF92DF92EF92FF920F931F9388
:101E9000CF93DF93182FEB01D0901D01F0901C0120
:101EA000B0908201BB2019F0C090800102C0CC2408
:101EB000C39480911E0100911F0101118091830143
:101EC000882349F0813021F0809120018F1518F08E
:101ED000A6E9EA2E01C0EF2CA0907F01BE01812F60
:101EE0000E946E0660917F01662339F0A1100CC03C
:101EF0008091AB0180935F0107C0AA2029F060E0C8
:101F000070E08FE498E043C0812F8D7F8830F9F432
:101F100010927A011A3019F4C0912001D0E08D2D71
:101F200090E08C179D0738F48F2D90E0C817D907E3
:101F300010F4C0932001CE010E944E0380938601CD
:101F40000E949D0481E08093060100E0C4C1113C21
:101F5000B1F2123C99F48091AB018E1520F4E0921D
:101F600086018E2D04C080912001809386010E94FD
:101F70009D048091AB0180935F01E7CF143C49F44D
:101F800080E00E949D0460E070E080ED99E016D84A
:101F9000DCCF8FE4810F823008F056C0BB2039F0CF
:101FA000CE0168E170E0DDD4892B31F0CECF6091B5
:101FB000130170E0CE01F7CF2091AB01209761F4BF
:101FC000123B11F48FEF05C02F15E0F7D21608F180
:101FD00081E0809306011DC0E0911301F0E0CF0184
:101FE00066E371E088D48C179D0710F42F1550F725
:101FF000CF016CE672E07FD48C179D0750F4D216A7
:1020000040F00E948A0560E070E080ED99E00E9457
:10201000DE07D091AB01809106016C2D70E0082E97
:10202000000C990B68D48D0F911D0E944E03C82F90
:1020300080932001D81721F0F81202C00E94980561
:10204000C09386018C2F93CF8FE1810F823020F4D3
:1020500080910601819577CF113009F0B3C0A9971F
:1020600011F410930601662391F080915F0170E0F6
:102070006150710990E03FD460917E0170E085D499
:10208000611101C061E06093AA01609386018091B3
:10209000AA019091AB01282F30E0291B31096091F2
:1020A0005D0170915E016F5F7F4F70935E01609381
:1020B0005D012115310509F448CF37FF05C093387C
:1020C00030F040E450E005C040E052E002C040E0A3
:1020D00051E05695479537FF02C02F5F3F4F35952A
:1020E000279521153105A9F74617570708F02DCF79
:1020F000891710F48FEF03C0981710F481E0890F4F
:10210000CFEFC80F2C2F30E0A901440F551FBA01A3
:1021100064527D4FFB01A591B49120910A02309148
:102120000B02C91760F42115310549F4AF3F91E066
:10213000B90729F4B0930B02A0930A020FC02A1723
:102140003B0718F42F5F3F4F05C0A217B30730F4C9
:102150002150310930930B0220930A029A01205535
:102160003E4FF901A591B49148B350E04A175B077F
:1021700018F498B39F5F07C048B350E0A417B507A1
:1021800018F498B3915098BBFB01659174914091FC
:102190000A0250910B026417750779F498B3F9019C
:1021A00045915491292F30E02417350731F4C0911F
:1021B000AA010E949D04C093AA0110925E01109290
:1021C0005D01C3CE1530A9F48091AB01823408F4CF
:1021D000BCCE90E08C1B9D0B282F813491052CF0F8
:1021E0008739910518F026E901C021E42093AA015E
:1021F000ACCE1630B1F49091AB0180918601981766
:1022000008F0A3CEC90FD11D90E08C179D0734F0C4
:10221000C134D10524F4C1E4D0E001C0EC018C2F1D
:102220000EC0173079F49091AA018091AB01891703
:1022300010F48F5F04C0981708F087CE8150809308
:10224000AA0183CE011146C0133CC9F481E0B1104C
:1022500080E0809382010E94EB030E9498058091A8
:10226000AB0190E00E944E03809320018093860191
:102270000E949D048091AB0180935F012CC0153CAE
:1022800051F480E00E949D0460E070E083E89EE0ED
:102290000E94DE0720C0173B29F460E070E080EB6D
:1022A00099E015C01A3C69F48091AB0180938501D7
:1022B00080912201809377010E94EB030E948A059E
:1022C0000AC01A3B39F460E070E088EB99E00E94A4
:1022D000C60701C001E0802FDF91CF911F910F91C0
:1022E000FF90EF90DF90CF90BF90AF9008951F9236
:1022F0000F920FB60F9211242F933F938F939F93BA
:10230000AF93BF93EF93FF938091D5018823E9F0BA
:10231000E091D40120B131B1F0E0EE0FFF1FDF01F9
:10232000A053BE4F2D933C93E453FE4F8081918187
:102330008217930708F401962817390708F40197C4
:102340009183808381E08093D60181E08093D501E1
:10235000FF91EF91BF91AF919F918F913F912F91FD
:102360000F900FBE0F901F9018951F920F920FB6EF
:102370000F9211248F9381E08093AF018F910F9082
:102380000FBE0F901F9018951F920F920FB60F92CD
:1023900011248F9381E08093AE018F910F900FBE37
:1023A0000F901F901895F89485B7877F85BF88EDAB
:1023B00090E00FB6F894A8958FBD90B7977F90BF27
:1023C0000FBE81E088B998E09CB99FE790BB92EA84
:1023D0009093720091E19093710091E89BBB8ABB4E
:1023E0008FEF91E0909369008093680080E882BB52
:1023F00087BD8CB788608CBFA89580E480BF87D8E4
:10240000789481E00E94870260E070E085EB9BE0B9
:102410000E94C607109287010E948A059FB1892FEA
:102420008095881F8827881F8093AD0197FF0BC078
:1024300082E00E948702F89480E890E0DBD2853A3F
:10244000B9F17894C7C0C0E08C2F0E949D0483E14D
:1024500090E05EDA8C2F86950E949D0483E190E0E7
:1024600057DA9FB1892F8095881F8827881F80930E
:10247000AD0197FD13C0CF5FC03431F765E181E056
:102480000E94C7030E94EB03C6E98C2F0E949D04A3
:1024900084E090E03DDAC150C1F7CACFCC2341F2CD
:1024A0008C2F0E949D048DE090E032DAC150F6CF6F
:1024B00008E811E0C1E8D0E0CE019CD2F801819398
:1024C0008F012196C23AD105B9F77894809188019D
:1024D00080938201809189018093190180918A0102
:1024E0008093160180918B018093130180918C0160
:1024F00080931A0180918D018093170180918E0144
:102500008093140180918F0180931B018091900131
:10251000809318018091910180931501809192011F
:1025200080931F0180919301809383018091940196
:10253000809381018091950180931E018091960185
:102540008093850180919701809384018091980107
:1025500080937701809199018093220180919A0163
:102560008093780180919B018093210180919C014F
:1025700080930C0180919D0180930A0180919E01BE
:1025800080930B0180919F01809310018091A001A5
:10259000809323018091A1018093C7018091A201C2
:1025A000809324018091A301809312018091A40162
:1025B000809311018091A50180937B018091A601F8
:1025C00080930D018091A70180930E018091A80155
:1025D00080930F018091850181118093200160E03B
:1025E00070E081EC96E00E94C60761E070E08FE445
:1025F00098E00E94C60743E4342E52E0452E60E482
:10260000862E992493947CEFA72E73E0B72EE7E0F3
:102610005E2EFFE4CF2EF8E0DF2E0E944202809172
:10262000B2019091B301009751F06091B0017091A7
:10263000B1010E94DE071092B3011092B2018091A5
:10264000AC01882309F448C080E00E949D04A8954D
:1026500030BE1F989FB1892F8095881F8827881FBB
:102660008093AD0197FFF6CF0E947D028CB7886002
:102670008CBF1092D6011092AF011092AE018091E2
:10268000AC01882301F186B78F79806486BF86B755
:10269000806186BF889586B78F7E86BF8091AE01A8
:1026A00081111092AC018091D601882331F0909273
:1026B00025019092CB010E94910A8091AF0188235D
:1026C000F1F27BD8DCCF409225018CB7877F8CBF9D
:1026D0000E94870AA89580BE12D910928701809126
:1026E000C5019091C601F3E0813C9F0779F4C0E7F2
:1026F000D0E0FE01849180533FD98CE291E008D96B
:102700002196F0E0CC37DF07A1F7BCC02CE0853F75
:10271000920799F0EEE083389E0729F0FEE08C3CAA
:102720009F0709F0A4C020917A01213009F09FC0D1
:1027300020917901222309F49AC0C0910C01C23082
:1027400018F0C23059F169CFEC2FF0E0E65FFE4F90
:10275000D08180917501813049F4909122019130AE
:1027600009F48EEF8093220182E801C086E90E947D
:102770009D04C11109C0DA3220F4C5010197F1F7B7
:1027800007C081E090E003C08D2F869590E0C0D80F
:1027900080E00E949D048D2F90E0A0C00E949C02CA
:1027A0008F73E82EF12C0E949C02652DCED001E0A3
:1027B00010E0380102C0660C771C9A95E2F70E947F
:1027C0009C0265E0C2D0E80102C0CC0FDD1F9A95E3
:1027D000E2F76C0E7D1E0E949C0290E0B301D5D002
:1027E000E301C80FD91FC739D10514F0C6E9D0E0FD
:1027F0008C2F0E949D04C7018BD88E0133E0159564
:1028000007953A95E1F7011101C001E010E0C70119
:102810007FD8C01BD10BD7FF02C0C0E0D0E08C2F07
:102820000E949D040E949C02837039F4C70170D8F5
:10283000CE01959587950E949D04C230D1053CF745
:102840000E949C026DE081D0C1E0D0E002C0CC0FBC
:10285000DD1F9A95E2F70E949C0290E0BE0181D0B4
:10286000C80FD91F80E00E949D04CE0137C028E028
:102870008531920781F48091CA01A1D880911F010E
:10288000882381F0D092B301C092B2011092B101BD
:102890001092B001C2CEE8E085339E0731F48091FA
:1028A000C8018DD888EE93E019C08C5E9740C1F4C2
:1028B0008091AD018111B1CE809120010E949D04D3
:1028C00084E690E025D880E00E949D04809110016C
:1028D00090E068EE73E00FD08456910919D89DCE30
:1028E00086B78F7986BF86B7806186BF889586B7A1
:1028F0008F7E86BF92CE0024552704C0080E591F34
:10290000880F991F009729F076956795B8F37105A0
:10291000B9F7802D952F0895EE27FF27AA27BB270B
:1029200008C0A20FB31FE41FF51F220F331F441F5F
:10293000551F969587957795679598F37040A9F7F9
:10294000009799F7BD01CF010895991B79E004C064
:10295000991F961708F0961B881F7A95C9F78095DE
:102960000895AA1BBB1B51E107C0AA1FBB1FA617D6
:10297000B70710F0A61BB70B881F991F5A95A9F728
:1029800080959095BC01CD01089597FB072E16F414
:10299000009406D077FD08D0E4DF07FC05D03EF4B4
:1029A000909581959F4F0895709561957F4F0895FB
:1029B000A1E21A2EAA1BBB1BFD010DC0AA1FBB1F43
:1029C000EE1FFF1FA217B307E407F50720F0A21BB5
:1029D000B30BE40BF50B661F771F881F991F1A9422
:1029E00069F760957095809590959B01AC01BD014C
:1029F000CF010895E199FECF1FBA8EBBE09A9927C7
:102A00008DB30895262FE199FECF1FBA8EBBE09AB1
:102A100081500DB2021639F01CBA2DBB0FB6F894D6
:0C2A2000E29AE19A0FBE0895F894FFCFEF
:102A2C00080E1801010101000480294303781E9847
:102A3C000237180107058282820A0A0A820A0101FA
:102A4C004615802D07020504031901160113010216
:102A5C000100000000000000010000000000000068
:102A6C0000010000210123022503270429052C065F
:022A7C00FF0653
:00000001FF
